{"abi":[{"type":"constructor","inputs":[{"name":"_trader","type":"address","internalType":"address"}],"stateMutability":"nonpayable"},{"type":"function","name":"addInvester","inputs":[{"name":"lender","type":"address","internalType":"address"}],"outputs":[],"stateMutability":"nonpayable"},{"type":"function","name":"borrowApprove","inputs":[{"name":"borrower","type":"address","internalType":"address payable"},{"name":"amount","type":"uint256","internalType":"uint256"}],"outputs":[],"stateMutability":"nonpayable"},{"type":"function","name":"borrowRequest","inputs":[{"name":"borrower","type":"address","internalType":"address payable"},{"name":"requestedAmount","type":"uint256","internalType":"uint256"}],"outputs":[],"stateMutability":"nonpayable"},{"type":"function","name":"borrowedAmounts","inputs":[{"name":"","type":"address","internalType":"address"},{"name":"","type":"address","internalType":"address"}],"outputs":[{"name":"","type":"uint256","internalType":"uint256"}],"stateMutability":"view"},{"type":"function","name":"getBorrowedAmount","inputs":[{"name":"lender","type":"address","internalType":"address payable"}],"outputs":[{"name":"","type":"uint256","internalType":"uint256"}],"stateMutability":"view"},{"type":"function","name":"getInvesters","inputs":[{"name":"lender","type":"address","internalType":"address"}],"outputs":[{"name":"","type":"bool","internalType":"bool"}],"stateMutability":"view"},{"type":"function","name":"hasActiveLoan","inputs":[{"name":"","type":"address","internalType":"address"}],"outputs":[{"name":"","type":"bool","internalType":"bool"}],"stateMutability":"view"},{"type":"function","name":"investers","inputs":[{"name":"","type":"address","internalType":"address"}],"outputs":[{"name":"","type":"bool","internalType":"bool"}],"stateMutability":"view"},{"type":"function","name":"market","inputs":[{"name":"","type":"address","internalType":"address"},{"name":"","type":"uint256","internalType":"uint256"}],"outputs":[{"name":"","type":"uint8","internalType":"enum LendingPlatform.Status"}],"stateMutability":"view"},{"type":"function","name":"repay","inputs":[{"name":"lender","type":"address","internalType":"address payable"},{"name":"borrower","type":"address","internalType":"address payable"}],"outputs":[],"stateMutability":"payable"},{"type":"function","name":"setPoolController","inputs":[{"name":"pool","type":"address","internalType":"address"}],"outputs":[],"stateMutability":"nonpayable"},{"type":"function","name":"trader","inputs":[],"outputs":[{"name":"","type":"address","internalType":"address"}],"stateMutability":"view"},{"type":"event","name":"Borrowed","inputs":[{"name":"lender","type":"address","indexed":true,"internalType":"address"},{"name":"borrower","type":"address","indexed":true,"internalType":"address"},{"name":"amount","type":"uint256","indexed":false,"internalType":"uint256"}],"anonymous":false},{"type":"event","name":"Repaid","inputs":[{"name":"lender","type":"address","indexed":true,"internalType":"address"},{"name":"borrower","type":"address","indexed":true,"internalType":"address"},{"name":"amount","type":"uint256","indexed":false,"internalType":"uint256"}],"anonymous":false}],"bytecode":{"object":"0x608060405234801561001057600080fd5b5060405161097238038061097283398101604081905261002f91610054565b600080546001600160a01b0319166001600160a01b0392909216919091179055610084565b60006020828403121561006657600080fd5b81516001600160a01b038116811461007d57600080fd5b9392505050565b6108df806100936000396000f3fe6080604052600436106100a75760003560e01c8063926d845b11610064578063926d845b146101c457806394756aa7146101e4578063a6a3d3a01461022c578063b9f2c7b51461025c578063c85f12b51461029f578063e8472e9f146102bf57600080fd5b80631758078b146100ac57806321d4f8db146100e9578063290e0a18146101295780636ed671e81461016f57806375d988541461018457806375f3fc38146101a4575b600080fd5b3480156100b857600080fd5b506000546100cc906001600160a01b031681565b6040516001600160a01b0390911681526020015b60405180910390f35b3480156100f557600080fd5b506101196101043660046107f8565b60036020526000908152604090205460ff1681565b60405190151581526020016100e0565b34801561013557600080fd5b5061016161014436600461081c565b600260209081526000928352604080842090915290825290205481565b6040519081526020016100e0565b61018261017d36600461081c565b6102df565b005b34801561019057600080fd5b5061018261019f3660046107f8565b6104f5565b3480156101b057600080fd5b506101196101bf3660046107f8565b610535565b3480156101d057600080fd5b506101826101df366004610855565b610566565b3480156101f057600080fd5b5061021f6101ff366004610855565b600460209081526000928352604080842090915290825290205460ff1681565b6040516100e09190610881565b34801561023857600080fd5b506101196102473660046107f8565b60056020526000908152604090205460ff1681565b34801561026857600080fd5b506101616102773660046107f8565b3360009081526002602090815260408083206001600160a01b03949094168352929052205490565b3480156102ab57600080fd5b506101826102ba3660046107f8565b610685565b3480156102cb57600080fd5b506101826102da366004610855565b6106be565b6001600160a01b03808216600090815260026020908152604080832093861683529290522054806103685760405162461bcd60e51b815260206004820152602860248201527f426f72726f77657220686173206e6f20626f72726f77656420616d6f756e7420604482015267746f20726570617960c01b60648201526084015b60405180910390fd5b336001600160a01b038316146103c05760405162461bcd60e51b815260206004820152601760248201527f4f6e6c7920626f72726f7765722063616e207265706179000000000000000000604482015260640161035f565b80341461041f5760405162461bcd60e51b815260206004820152602760248201527f596f75206d757374207265706179207468652066756c6c20626f72726f77656460448201526608185b5bdd5b9d60ca1b606482015260840161035f565b6001600160a01b03828116600081815260026020818152604080842095891680855295825280842084905593835260038152838320805460ff19908116909155600482528484208785529091528383208054909116909117905590516108fc84150291849190818181858888f193505050501580156104a2573d6000803e3d6000fd5b50816001600160a01b0316836001600160a01b03167f0a3fbbea70e93f2daafa3102f5c9a1b8315e6d7a1e43e4bc020bc1162327470a836040516104e891815260200190565b60405180910390a3505050565b6000546001600160a01b0316331461050c57600080fd5b6001600160a01b0381166000908152600560205260409020805460ff1916600117905550565b50565b6001600160a01b03811660009081526005602052604081205460ff161561055e57506001919050565b506000919050565b3360009081526005602052604090205460ff16151560011461058757600080fd5b6001600160a01b03828116600081815260026020908152604080832033808552908352818420879055848452600383528184208054600160ff19918216811790925560048086528487208a885290955283862080549091169055548251630f7dbfe960e31b815293840195909552602483015260448201869052519290931692637bedff48926064808301939282900301818387803b15801561062957600080fd5b505af115801561063d573d6000803e3d6000fd5b50506040518381526001600160a01b03851692503391507f3fc499aeb0bb1cb58b6de8b02b3f86f4e7394e9690bef0110e32ced8a56310459060200160405180910390a35050565b6000546001600160a01b0316331461069c57600080fd5b600180546001600160a01b0319166001600160a01b0392909216919091179055565b336001600160a01b038316146106d357600080fd5b600081116107355760405162461bcd60e51b815260206004820152602960248201527f426f72726f77656420616d6f756e74206d7573742062652067726561746572206044820152687468616e207a65726f60b81b606482015260840161035f565b6001600160a01b03821660009081526003602052604090205460ff16156107b25760405162461bcd60e51b815260206004820152602b60248201527f426f72726f7765722063616e206f6e6c7920626f72726f77206f6e65206c6f6160448201526a6e20617420612074696d6560a81b606482015260840161035f565b6001600160a01b0391909116600090815260046020908152604080832093835292905220805460ff19166001179055565b6001600160a01b038116811461053257600080fd5b60006020828403121561080a57600080fd5b8135610815816107e3565b9392505050565b6000806040838503121561082f57600080fd5b823561083a816107e3565b9150602083013561084a816107e3565b809150509250929050565b6000806040838503121561086857600080fd5b8235610873816107e3565b946020939093013593505050565b60208101600383106108a357634e487b7160e01b600052602160045260246000fd5b9190529056fea2646970667358221220a62b5c49e7d80b97268bfc3f76f1a0a54c1eece882697a17a3212bd18f15a19264736f6c63430008140033","linkReferences":{}},"methodIdentifiers":{"addInvester(address)":"75d98854","borrowApprove(address,uint256)":"926d845b","borrowRequest(address,uint256)":"e8472e9f","borrowedAmounts(address,address)":"290e0a18","getBorrowedAmount(address)":"b9f2c7b5","getInvesters(address)":"75f3fc38","hasActiveLoan(address)":"21d4f8db","investers(address)":"a6a3d3a0","market(address,uint256)":"94756aa7","repay(address,address)":"6ed671e8","setPoolController(address)":"c85f12b5","trader()":"1758078b"},"id":0}