{"abi":[{"type":"constructor","inputs":[{"name":"_trader","type":"address","internalType":"address"}],"stateMutability":"nonpayable"},{"type":"function","name":"addInvester","inputs":[{"name":"lender","type":"address","internalType":"address"}],"outputs":[],"stateMutability":"nonpayable"},{"type":"function","name":"borrowApprove","inputs":[{"name":"borrower","type":"address","internalType":"address payable"},{"name":"amount","type":"uint256","internalType":"uint256"}],"outputs":[],"stateMutability":"nonpayable"},{"type":"function","name":"borrowRequest","inputs":[{"name":"borrower","type":"address","internalType":"address payable"},{"name":"requestedAmount","type":"uint256","internalType":"uint256"}],"outputs":[],"stateMutability":"nonpayable"},{"type":"function","name":"borrowedAmounts","inputs":[{"name":"","type":"address","internalType":"address"},{"name":"","type":"address","internalType":"address"}],"outputs":[{"name":"","type":"uint256","internalType":"uint256"}],"stateMutability":"view"},{"type":"function","name":"getBorrowedAmount","inputs":[{"name":"lender","type":"address","internalType":"address payable"}],"outputs":[{"name":"","type":"uint256","internalType":"uint256"}],"stateMutability":"view"},{"type":"function","name":"getInvesters","inputs":[{"name":"lender","type":"address","internalType":"address"}],"outputs":[{"name":"","type":"bool","internalType":"bool"}],"stateMutability":"view"},{"type":"function","name":"hasActiveLoan","inputs":[{"name":"","type":"address","internalType":"address"}],"outputs":[{"name":"","type":"bool","internalType":"bool"}],"stateMutability":"view"},{"type":"function","name":"investers","inputs":[{"name":"","type":"address","internalType":"address"}],"outputs":[{"name":"","type":"bool","internalType":"bool"}],"stateMutability":"view"},{"type":"function","name":"market","inputs":[{"name":"","type":"address","internalType":"address"},{"name":"","type":"uint256","internalType":"uint256"}],"outputs":[{"name":"","type":"uint8","internalType":"enum LendingPlatform.Status"}],"stateMutability":"view"},{"type":"function","name":"repay","inputs":[{"name":"lender","type":"address","internalType":"address payable"},{"name":"borrower","type":"address","internalType":"address payable"}],"outputs":[],"stateMutability":"payable"},{"type":"function","name":"trader","inputs":[],"outputs":[{"name":"","type":"address","internalType":"address"}],"stateMutability":"view"},{"type":"event","name":"Borrowed","inputs":[{"name":"lender","type":"address","indexed":true,"internalType":"address"},{"name":"borrower","type":"address","indexed":true,"internalType":"address"},{"name":"amount","type":"uint256","indexed":false,"internalType":"uint256"}],"anonymous":false},{"type":"event","name":"Repaid","inputs":[{"name":"lender","type":"address","indexed":true,"internalType":"address"},{"name":"borrower","type":"address","indexed":true,"internalType":"address"},{"name":"amount","type":"uint256","indexed":false,"internalType":"uint256"}],"anonymous":false}],"bytecode":{"object":"0x608060408190526000546001600160a01b031690309061001e906100c2565b6001600160a01b03928316815291166020820152604001604051809103906000f080158015610051573d6000803e3d6000fd5b50600180546001600160a01b0319166001600160a01b039290921691909117905534801561007e57600080fd5b50604051610c95380380610c9583398101604081905261009d916100cf565b600080546001600160a01b0319166001600160a01b03929092169190911790556100ff565b6103238061097283390190565b6000602082840312156100e157600080fd5b81516001600160a01b03811681146100f857600080fd5b9392505050565b6108648061010e6000396000f3fe60806040526004361061009c5760003560e01c806375f3fc381161006457806375f3fc3814610199578063926d845b146101b957806394756aa7146101d9578063a6a3d3a014610221578063b9f2c7b514610251578063e8472e9f1461029457600080fd5b80631758078b146100a157806321d4f8db146100de578063290e0a181461011e5780636ed671e81461016457806375d9885414610179575b600080fd5b3480156100ad57600080fd5b506000546100c1906001600160a01b031681565b6040516001600160a01b0390911681526020015b60405180910390f35b3480156100ea57600080fd5b5061010e6100f936600461077d565b60036020526000908152604090205460ff1681565b60405190151581526020016100d5565b34801561012a57600080fd5b506101566101393660046107a1565b600260209081526000928352604080842090915290825290205481565b6040519081526020016100d5565b6101776101723660046107a1565b6102b4565b005b34801561018557600080fd5b5061017761019436600461077d565b6104ca565b3480156101a557600080fd5b5061010e6101b436600461077d565b610505565b3480156101c557600080fd5b506101776101d43660046107da565b610536565b3480156101e557600080fd5b506102146101f43660046107da565b600460209081526000928352604080842090915290825290205460ff1681565b6040516100d59190610806565b34801561022d57600080fd5b5061010e61023c36600461077d565b60056020526000908152604090205460ff1681565b34801561025d57600080fd5b5061015661026c36600461077d565b3360009081526002602090815260408083206001600160a01b03949094168352929052205490565b3480156102a057600080fd5b506101776102af3660046107da565b610655565b6001600160a01b038082166000908152600260209081526040808320938616835292905220548061033d5760405162461bcd60e51b815260206004820152602860248201527f426f72726f77657220686173206e6f20626f72726f77656420616d6f756e7420604482015267746f20726570617960c01b60648201526084015b60405180910390fd5b336001600160a01b038316146103955760405162461bcd60e51b815260206004820152601760248201527f4f6e6c7920626f72726f7765722063616e2072657061790000000000000000006044820152606401610334565b8034146103f45760405162461bcd60e51b815260206004820152602760248201527f596f75206d757374207265706179207468652066756c6c20626f72726f77656460448201526608185b5bdd5b9d60ca1b6064820152608401610334565b6001600160a01b03828116600081815260026020818152604080842095891680855295825280842084905593835260038152838320805460ff19908116909155600482528484208785529091528383208054909116909117905590516108fc84150291849190818181858888f19350505050158015610477573d6000803e3d6000fd5b50816001600160a01b0316836001600160a01b03167f0a3fbbea70e93f2daafa3102f5c9a1b8315e6d7a1e43e4bc020bc1162327470a836040516104bd91815260200190565b60405180910390a3505050565b6000546001600160a01b031633146104e157600080fd5b6001600160a01b03166000908152600560205260409020805460ff19166001179055565b6001600160a01b03811660009081526005602052604081205460ff161561052e57506001919050565b506000919050565b3360009081526005602052604090205460ff16151560011461055757600080fd5b6001600160a01b03828116600081815260026020908152604080832033808552908352818420879055848452600383528184208054600160ff19918216811790925560048086528487208a885290955283862080549091169055548251630f7dbfe960e31b815293840195909552602483015260448201869052519290931692637bedff48926064808301939282900301818387803b1580156105f957600080fd5b505af115801561060d573d6000803e3d6000fd5b50506040518381526001600160a01b03851692503391507f3fc499aeb0bb1cb58b6de8b02b3f86f4e7394e9690bef0110e32ced8a56310459060200160405180910390a35050565b600081116106b75760405162461bcd60e51b815260206004820152602960248201527f426f72726f77656420616d6f756e74206d7573742062652067726561746572206044820152687468616e207a65726f60b81b6064820152608401610334565b6001600160a01b03821660009081526003602052604090205460ff16156107345760405162461bcd60e51b815260206004820152602b60248201527f426f72726f7765722063616e206f6e6c7920626f72726f77206f6e65206c6f6160448201526a6e20617420612074696d6560a81b6064820152608401610334565b6001600160a01b0391909116600090815260046020908152604080832093835292905220805460ff19166001179055565b6001600160a01b038116811461077a57600080fd5b50565b60006020828403121561078f57600080fd5b813561079a81610765565b9392505050565b600080604083850312156107b457600080fd5b82356107bf81610765565b915060208301356107cf81610765565b809150509250929050565b600080604083850312156107ed57600080fd5b82356107f881610765565b946020939093013593505050565b602081016003831061082857634e487b7160e01b600052602160045260246000fd5b9190529056fea2646970667358221220aac03affdd77354b3540505355fa62d5b92870f63ea79b711fdae9a889e35efb64736f6c63430008140033608060405234801561001057600080fd5b5060405161032338038061032383398101604081905261002f9161007c565b600180546001600160a01b039384166001600160a01b031991821617909155600280549290931691161790556100af565b80516001600160a01b038116811461007757600080fd5b919050565b6000806040838503121561008f57600080fd5b61009883610060565b91506100a660208401610060565b90509250929050565b610265806100be6000396000f3fe6080604052600436106100225760003560e01c80637bedff48146100e557600080fd5b366100e057600354604051630ebe7f8760e31b81523360048201526001600160a01b03909116906375f3fc3890602401602060405180830381865afa15801561006f573d6000803e3d6000fd5b505050506040513d601f19601f820116820180604052508101906100939190610187565b15156001146100a157600080fd5b33600081815260208190526040808220349081905590519092917f88a5966d370b9919b20f3e2c13ff65706f196a4e32cc2c12bf57088f8852587491a3005b600080fd5b3480156100f157600080fd5b506101056101003660046101cc565b610107565b005b6002546001600160a01b0316331461011e57600080fd5b6001600160a01b03821660009081526020819052604081208054839290610146908490610208565b90915550506040516001600160a01b0384169082156108fc029083906000818181858888f19350505050158015610181573d6000803e3d6000fd5b50505050565b60006020828403121561019957600080fd5b815180151581146101a957600080fd5b9392505050565b80356001600160a01b03811681146101c757600080fd5b919050565b6000806000606084860312156101e157600080fd5b6101ea846101b0565b92506101f8602085016101b0565b9150604084013590509250925092565b8181038181111561022957634e487b7160e01b600052601160045260246000fd5b9291505056fea2646970667358221220a331436c34eab06e422d048c0650db043094081a8938f87a01d395316c26bf9f64736f6c63430008140033","linkReferences":{}},"methodIdentifiers":{"addInvester(address)":"75d98854","borrowApprove(address,uint256)":"926d845b","borrowRequest(address,uint256)":"e8472e9f","borrowedAmounts(address,address)":"290e0a18","getBorrowedAmount(address)":"b9f2c7b5","getInvesters(address)":"75f3fc38","hasActiveLoan(address)":"21d4f8db","investers(address)":"a6a3d3a0","market(address,uint256)":"94756aa7","repay(address,address)":"6ed671e8","trader()":"1758078b"},"id":0}