{"abi":[{"type":"constructor","inputs":[{"name":"_owner","type":"address","internalType":"address"},{"name":"_lp","type":"address","internalType":"contract ILendingPlatform"}],"stateMutability":"nonpayable"},{"type":"receive","stateMutability":"payable"},{"type":"function","name":"sendLoan","inputs":[{"name":"borrower","type":"address","internalType":"address payable"},{"name":"lender","type":"address","internalType":"address payable"},{"name":"amount","type":"uint256","internalType":"uint256"}],"outputs":[],"stateMutability":"nonpayable"},{"type":"event","name":"Received","inputs":[{"name":"lender","type":"address","indexed":true,"internalType":"address"},{"name":"amount","type":"uint256","indexed":true,"internalType":"uint256"}],"anonymous":false}],"bytecode":{"object":"0x608060405234801561001057600080fd5b5060405161032638038061032683398101604081905261002f91610078565b600180546001600160a01b039384166001600160a01b031991821617909155600280549290931691161790556100b2565b6001600160a01b038116811461007557600080fd5b50565b6000806040838503121561008b57600080fd5b825161009681610060565b60208401519092506100a781610060565b809150509250929050565b610265806100c16000396000f3fe6080604052600436106100225760003560e01c80637bedff48146100e557600080fd5b366100e057600254604051630ebe7f8760e31b81523360048201526001600160a01b03909116906375f3fc3890602401602060405180830381865afa15801561006f573d6000803e3d6000fd5b505050506040513d601f19601f820116820180604052508101906100939190610187565b15156001146100a157600080fd5b33600081815260208190526040808220349081905590519092917f88a5966d370b9919b20f3e2c13ff65706f196a4e32cc2c12bf57088f8852587491a3005b600080fd5b3480156100f157600080fd5b506101056101003660046101cc565b610107565b005b6002546001600160a01b0316331461011e57600080fd5b6001600160a01b03821660009081526020819052604081208054839290610146908490610208565b90915550506040516001600160a01b0384169082156108fc029083906000818181858888f19350505050158015610181573d6000803e3d6000fd5b50505050565b60006020828403121561019957600080fd5b815180151581146101a957600080fd5b9392505050565b80356001600160a01b03811681146101c757600080fd5b919050565b6000806000606084860312156101e157600080fd5b6101ea846101b0565b92506101f8602085016101b0565b9150604084013590509250925092565b8181038181111561022957634e487b7160e01b600052601160045260246000fd5b9291505056fea2646970667358221220e1755e5cd81a2a0b0eb738277791fa695f0e9f2c497a4e33d39d0979b9406b4164736f6c63430008140033","linkReferences":{}},"methodIdentifiers":{"sendLoan(address,address,uint256)":"7bedff48"},"id":1}